:020000020000FC
:1000000009C01895F6C0189518951895D8C0189578
:1000100018951895E0E6F0E0CFE9D0E000270193CD
:10002000CE17DF07E0F7EEE1FF27EA95F083E9F767
:100030000FE90DBF0FE007BB0CE208BB00E808B9F1
:1000400001E005BD00E205BF10E060D10A3A49F0C9
:10005000F3E0ECED20E210E005915ED113952A95D6
:10006000D9F7B0E0A0E620E110E050D10D93139550
:100070002A95D9F7F0906700F3942AE0FF0CEE1C64
:10008000DD1C2A95D9F700241D2C2E2C3F2C44244E
:10009000552466240AE0702E46D1109274002092F6
:1000A00075003092760000241D2C2E2C3F2C442409
:1000B0005524662404E0702E36D1109277002092E9
:1000C00078003092790037E840E80FD134E240E818
:1000D000FBD043D1F3E0ECEC08E03591459105D13C
:1000E0000A95D9F73DEE40916D004860FED039E8A1
:1000F00040916B00FAD035EF409168004F77F5D012
:1001000036EF40916900F1D037EF40916A00EDD0B1
:1001100032EF40916C00E9D033E240916E004370C1
:10012000440F440F440F440FCFD036E340916F008B
:100130004F77CAD0F3E0EEEB07E035914591C4D09C
:100140000A95D9F70AD100E003BF01E002BF01E040
:100150000FBD05E003BFC0980000000000000000D4
:1001600000000000C09A000008B701FD01C0F3CFF5
:1001700000E105BB00E20BBF00E20ABFB0916100E5
:10018000A0916200D0916300C0916400AC1BBD0BD4
:10019000B0937000A0937100F0916500E09166004B
:1001A000B0916100A0916200AE1BBF0BB0937200D2
:1001B000A0937300B0E0A1E002D08895FECF119724
:1001C00009F0189579D02DD0E1D042D0DFD04DD0B4
:1001D000DDD058D0DBD02197B1F723D071D0D091AA
:1001E0006300C0916400B0917000A091710020D0B4
:1001F000189562D025E046D0B0D051D0AED02A9527
:10020000D1F73197B9F70DD05BD000E20ABFF0917A
:100210006500E0916600B0917200A091730008D073
:10022000189500E003BF00E002BF02E00FBD089593
:1002300000E003BF00E002BF02E00FBD00916700D5
:1002400006BF04E009BF04E008BF05E003BF08954E
:1002500000E003BF00E002BF02E40FBD0BE506BFF4
:1002600000E009BF01E003BF089500E003BF00E024
:1002700002BF02E40FBD01E506BF00E009BF01E0D7
:1002800003BF089500E003BF00E002BF02E40FBD1A
:1002900008E406BF00E009BF01E003BF089500E0E5
:1002A00003BF00E002BF02E40FBD00E406BF00E0B0
:1002B00009BF01E003BF089537E848E016D008956C
:1002C00037E840E012D0089520E1C398440F331F6F
:1002D00020F4C09AC19AC19803C0C098C19AC1982D
:1002E0002A95A1F7C098C39A089520E1C298440FB7
:1002F000331F20F4C09AC19AC19803C0C098C19A14
:10030000C1982A95A1F7C098C29A0895E199FECFA5
:100310001EBBE09A0DB30895E199FECF0DBB1EBB45
:10032000E29AE19A0895BB24AA249924882450E2F1
:10033000330C221C111C001CBB1CAA1C991C881C01
:10034000B714A6049504840428F03394B718A608BB
:10035000950884085A9561F7089570917600809108
:100360007500909174007A518040904075508040A3
:100370009040E0F77B3F38F031F07D3F28F021F0EE
:100380007F3F18F011F0000000000895709179008F
:1003900080917800909177007A518040904075501C
:1003A00080409040E0F77B3F38F031F07D3F28F00F
:1003B00021F07F3F18F011F0000000000895205F49
:1003C000210A220025203700A600342A8700850054
:1003D0008600030004008B128C15F112AA0E100087
:1003E0000300017C5364007F0604000A66697A7486
:0C03F0006F704079616E6465782E727544
:00000001FF
